:100000000C9406060C942E060C942E060C942E06C8
:100010000C942E060C942E060C942E060C94611E45
:100020000C942E060C942E060C942E060C942E0680
:100030000C942E060C942E060C942E060C942E0670
:100040000C9445320C942E060C942E060C942E061D
:100050000C942E060C942E060C942E060C942E0650
:100060000C942E060C942E06436F6E6E65637469B5
:100070006F6E3A20636C6F736500485454502F3193
:100080002E3120343034204E6F7420466F756E64EC
:10009000007D0022465245455F4D454D223A2000E5
:1000A0007B00436F6E6E656374696F6E3A20636C9C
:1000B0006F7365004163636573732D436F6E747274
:1000C0006F6C2D416C6C6F772D4F726967696E3A5A
:1000D000202A006170706C69636174696F6E2F6AA9
:1000E000736F6E00746578742F68746D6C00436F65
:1000F0006E74656E742D547970653A2000485454BE
:10010000502F312E3120323030204F4B0061634F61
:1001100066660069724C6561726E436F6D6D616EEB
:1001200064006765745374617465003E2041432028
:10013000636F6D6D616E64203C2F627574746F6EB9
:100140003E3C2F6469763E3C2F6469763E3C2F64CA
:1001500069763E3C2F6469763E3C64697620636C28
:100160006173733D22726F77223E3C64697620632F
:100170006C6173733D22636F6C2D6D642D3132227F
:100180003E3C7370616E20636C6173733D226C61E1
:1001900062656C206C6162656C2D64656661756C6E
:1001A00074223E3C7370616E20636C6173733D22F8
:1001B000676C79706869636F6E20676C79706869C5
:1001C000636F6E2D64617368626F617264223E3C7E
:1001D0002F7370616E3E2046726565206D656D6F90
:1001E000727920285352414D293A203C7370616E38
:1001F0002062696E64546F50726F70657274793DDD
:1002000022465245455F4D454D223E3C2F7370615D
:100210006E3E2062797465733C2F7370616E3E3C54
:100220002F6469763E3C2F6469763E3C2F64697684
:100230003E3C2F626F64793E006C672220747970B7
:10024000653D22627574746F6E22206F6E636C69F7
:10025000636B3D2276617220636D643D77696E64E5
:100260006F772E70726F6D70742827456E7465728B
:1002700020636F6D6D616E64206E616D653A272934
:100280003B20696E766F6B65282769724C656172D9
:100290006E436F6D6D616E643F6E616D653D272BC2
:1002A000636D642C2066756E6374696F6E282920F7
:1002B0007B20616C6572742827436F6D6D616E647D
:1002C00020736176656427293B207D2C2066756E3E
:1002D0006374696F6E2829207B20616C65727428B5
:1002E000274572726F7220736176696E6720636F43
:1002F0006D6D616E6427293B207D293B223E204C99
:100300006561726E20495220636F6D6D616E64206D
:100310003C2F627574746F6E3E3C627574746F6EC0
:1003200020636C6173733D2262746E2062746E2D63
:10033000626C6F636B2062746E2D6C67222074791F
:1003400070653D22627574746F6E22206F6E636CEF
:1003500069636B3D22696E766F6B65282761634F19
:10036000666627292200636F6E74656E747B666F04
:100370006E742D73697A653A323170783B666F6EB0
:10038000742D7765696768743A3330303B6C696EF9
:10039000652D6865696768743A312E347D3C2F732A
:1003A00074796C653E3C2F686561643E3C626F64A5
:1003B0007920636C6173733D22636F6E74656E7434
:1003C000223E3C62722F3E3C64697620636C61730E
:1003D000733D22636F6E7461696E65722D666C7514
:1003E0006964223E3C64697620636C6173733D22CC
:1003F000726F77223E3C64697620636C6173733D53
:1004000022636F6C2D6D642D33223E3C646976202F
:10041000636C6173733D2270616E656C2070616EF8
:10042000656C2D7072696D61727920746578742DB8
:1004300063656E746572223E3C64697620636C610C
:1004400073733D2270616E656C2D68656164696EC1
:1004500067223E3C2F6469763E3C64697620636C7B
:100460006173733D2270616E656C2D626F647922D9
:100470003E3C627574746F6E20636C6173733D22D1
:1004800062746E2062746E2D626C6F636B20627496
:100490006E2D00696F6E28297B2428225B62696EAD
:1004A00064546F50726F70657274795D22292E6585
:1004B0006163682866756E6374696F6E28297B7640
:1004C000617220623D242874686973293B766172E9
:1004D00020643D622E61747472282262696E6454D5
:1004E0006F50726F706572747922293B7661722049
:1004F000633D622E61747472282274657874546F3F
:1005000067676C657222293B69662863297B633DB6
:100510004A534F4E2E70617273652863297D62695C
:100520006E64696E674D616E616765722E616464A9
:100530004C697374656E657228642C622C736574E3
:10054000546578742C63293B76617220613D622E7C
:10055000617474722822636C617373546F67676C83
:10056000657222293B69662861297B613D4A534FA8
:100570004E2E70617273652861293B62696E6469F1
:100580006E674D616E616765722E6164644C69735C
:1005900074656E657228642C622C746F67676C6575
:1005A000436C6173732C61297D7D297D293B3C2F30
:1005B0007363726970743E3C7374796C653E2E008F
:1005C0006E674D616E616765722E616374697665F1
:1005D00052657175657374732B2B3B242E6765749C
:1005E0002875726C2B632C66756E6374696F6E2848
:1005F00065297B62696E64696E674D616E616765CE
:10060000722E616374697665526571756573747372
:100610002D2D3B666F7228766172206420696E20F2
:1006200065297B62696E64696E674D616E6167659D
:10063000722E73657428642C655B645D297D696620
:100640002862297B6228297D7D292E6661696C28B4
:1006500066756E6374696F6E28297B62696E646962
:100660006E674D616E616765722E61637469766550
:1006700052657175657374732D2D3B696628612908
:100680007B6128297D7D297D3B736574496E746586
:100690007276616C2866756E6374696F6E28297B4B
:1006A00069662862696E64696E674D616E6167652F
:1006B000722E6163746976655265717565737473C2
:1006C0003E30297B72657475726E7D696E766F6BD4
:1006D000652822676574537461746522297D2C3105
:1006E000303030293B242866756E637400696E656E
:1006F0006422262662213D3D6E756C6C297B666FF7
:10070000722876617220613D303B613C622E6C65DF
:100710006E6774683B612B2B297B625B615D2829C6
:100720007D7D7D7D7D3B76617220746F67676C6532
:10073000436C6173733D66756E6374696F6E286494
:100740002C622C63297B666F72287661722065208B
:10075000696E2063297B76617220613D635B655D14
:100760003B69662865213D62297B642E7061726554
:100770006E7428292E72656D6F7665436C61737394
:100780002861297D7D696628635B625D297B642E13
:10079000706172656E7428292E616464436C6173A4
:1007A0007328635B625D297D7D3B76617220736592
:1007B00074546578743D66756E6374696F6E2863F2
:1007C0002C612C62297B696628747970656F6620BC
:1007D00062213D3D22756E646566696E6564222600
:1007E00026625B615D297B613D625B615D7D632E9D
:1007F000746578742861297D3B76617220696E7614
:100800006F6B653D66756E6374696F6E28632C62ED
:100810002C61297B62696E6469006E6572733A7B34
:100820007D2C616374697665526571756573747347
:100830003A302C6164644C697374656E65723A6613
:10084000756E6374696F6E28662C622C632C612947
:100850007B76617220653D746869732E6C69737470
:10086000656E6572735B665D3B6966287479706559
:100870006F6620653D3D3D22756E646566696E65F7
:100880006422297B653D5B5D3B746869732E6C69EE
:100890007374656E6572735B665D3D657D766172CE
:1008A00020643D66756E6374696F6E28297B76617E
:1008B0007220673D62696E64696E674D616E616743
:1008C00065722E646174615B665D3B6328622C67B0
:1008D0002C61297D3B652E707573682864293B6403
:1008E00028297D2C7365743A66756E6374696F6E22
:1008F00028642C63297B696628746869732E646197
:1009000074615B645D213D3D63297B746869732E6E
:10091000646174615B645D3D633B76617220623D3E
:10092000746869732E6C697374656E6572735B6449
:100930005D3B696628747970656F662062213D3D74
:1009400022756E646566003D2268747470733A2F78
:100950002F6D617863646E2E626F6F747374726151
:100960007063646E2E636F6D2F626F6F7473747239
:1009700061702F332E332E342F6A732F626F6F7492
:1009800073747261702E6D696E2E6A73223E3C2FF5
:100990007363726970743E3C6C696E6B2072656C37
:1009A0003D227374796C6573686565742220687282
:1009B00065663D22687474703A2F2F626F6F74738E
:1009C00077617463682E636F6D2F70617065722F2D
:1009D000626F6F7473747261702E6D696E2E6373C3
:1009E00073223E3C6C696E6B20687265663D2768B9
:1009F0007474703A2F2F666F6E74732E676F6F6703
:100A00006C65617069732E636F6D2F6373733F66DE
:100A1000616D696C793D526F626F746F27207265EA
:100A20006C3D277374796C657368656574272074F1
:100A30007970653D27746578742F637373273E3C26
:100A40007363726970743E7661722075726C3D22B8
:100A5000223B7661722062696E64696E674D616ED9
:100A6000616765723D7B646174613A7B7D2C6C6962
:100A7000737465003C21444F4354595045206874B9
:100A80006D6C3E3C68746D6C3E3C686561643E3CD8
:100A90006D65746120636861727365743D224953AA
:100AA0004F2D383835392D31223E3C6D657461202B
:100AB0006E616D653D2276696577706F7274222074
:100AC000636F6E74656E743D2277696474683D640B
:100AD00065766963652D77696474682C20696E6931
:100AE0007469616C2D7363616C653D31223E3C73AA
:100AF0006372697074207372633D22687474703A13
:100B00002F2F636F64652E6A71756572792E636F1E
:100B10006D2F6A71756572792D312E31312E322E1D
:100B20006D696E2E6A73223E3C2F73637269707416
:100B30003E3C6C696E6B2072656C3D227374796CFF
:100B40006573686565742220687265663D22687405
:100B50007470733A2F2F6D617863646E2E626F6FBD
:100B600074737472617063646E2E636F6D2F626F45
:100B70006F7473747261702F332E332E342F63733E
:100B8000732F626F6F7473747261702E6D696E2E45
:100B9000637373223E3C7363726970742073726373
:100BA000000000000008000201000003040700002C
:100BB0000000000000000102040810204080010233
:100BC0000408102001020408102004040404040492
:100BD00004040202020202020303030303030000EF
:100BE0000000230026002900000000002500280046
:100BF0002B0000000000240027002A00500B95263F
:100C0000EE26122BFA2C942E6A30E03011241FBEEF
:100C1000CFEFD8E0DEBFCDBF11E0A0E0B1E0ECEF58
:100C2000FBE602C005900D92AE3CB107D9F723E078
:100C3000AEECB1E001C01D92A930B207E1F71BE0B4
:100C4000CCE0DCE004C02297FE010E944334CC3F9C
:100C5000D107C9F70E9430320C94FC350C94000087
:100C6000FC01848583FF0DC084A195A1A6A1B7A135
:100C7000448D558D668D778D841B950BA60BB70B18
:100C800003C080E090E0DC01811520E89207A10517
:100C9000B10520F08FEF9FE7A0E0B0E0089529E4D0
:100CA00031E0FC01318320830895089523E531E08C
:100CB000FC0131832083089523E531E0FC01318379
:100CC0002083089529E431E0FC01318320830895D5
:100CD000DC0116964D915C9117971496ED91FC915D
:100CE0001597CA019595879512962D913C9113976A
:100CF00040FF0AC0D901A80FB91F0D90BC91A02DCB
:100D0000AE0FBF1FED91FC91820F931F09940C96BB
:100D10000C9476120C960C942A100C960C944F0E90
:100D2000895B9D4F0C94A41D895B9D4F0C940B1EF9
:100D300029E431E0FC01318320830C94433223E524
:100D400031E0FC01318320830C94433223E531E010
:100D5000FC01318320830C94433229E431E0FC010F
:100D6000318320830C9443320F931F93CF93DF93EF
:100D7000EC018B016DEF70E0888199810E942F3129
:100D80006EEE70E0888199810E94EF30013011058C
:100D900019F464EE70E002C063ED70E0888199811F
:100DA0000E942F3164EB70E0888199810E942F317D
:100DB00062EA70E0888199810E942F31888199814F
:100DC000DF91CF911F910F910C941B31CF93DF9343
:100DD000EC016AE770E0888199810E942F3168E612
:100DE00070E0888199810E942F3188819981DF91FB
:100DF000CF910C941B31CF93DF931F92CDB7DEB709
:100E0000698341E050E0BE016F5F7F4F0C960E9406
:100E100076120F90DF91CF910895CF93DF931F92B9
:100E2000CDB7DEB741E050E0BE016F5F7F4F0E945B
:100E30000B0D019719F4898190E002C08FEF9FEFAD
:100E40000F90DF91CF9108950C960C940D07FC0143
:100E50002081207731F09093D9018093D80181E0EF
:100E6000089580E00895FF920F931F93CF93DF932F
:100E70008C01F62EEC01C95DDD4FCE010E947C1085
:100E8000B801CE010E94F10C882351F0FF2051F0EF
:100E9000CE01DF91CF911F910F91FF900C94270706
:100EA00080E001C081E0DF91CF911F910F91FF9011
:100EB0000895EF92FF920F931F93CF93DF93CDB7D7
:100EC000DEB7A0970FB6F894DEBF0FBECDBFFB0113
:100ED000E42E19821A8220812F3241F421812111BE
:100EE00005C0642F0E943307F82E1FC08C01095DD6
:100EF0001D4F21E0AF01B801CE0101960E9485107F
:100F0000F82E882391F08981807771F080E2FE01CC
:100F10003196D80101900D928A95E1F7EE2029F0E3
:100F2000C8010E94270701C0F12C8F2DA0960FB693
:100F3000F894DEBF0FBECDBFDF91CF911F910F910F
:100F4000FF90EF9008950F931F93CF93DF93EC01E1
:100F5000242F825B9D4F462FBC0107970E94F51CF2
:100F6000882309F18E01095D1D4FC8010E947C1084
:100F700061E0CE010E94081B882339F0BE01C80140
:100F80000E94F10C882379F007C060E0CE010E9436
:100F9000081B8111F3CF07C0C8010E9427078823CF
:100FA00011F081E001C080E0DF91CF911F910F919E
:100FB0000895EF92FF920F931F93CF93DF93CDB7D6
:100FC000DEB72C970FB6F894DEBF0FBECDBF8C01F5
:100FD00061E08AE00E94543386E0ECE0F1E0DE015B
:100FE000179601900D928A95E1F786E0FE013796FB
:100FF000D8011A9601900D928A95E1F780ECD801FC
:1010000016968C93169788EA17968C93179784E612
:1010100018968C9318978DEF19968C93199780E5F5
:1010200090E015969C938E931497B8016A5F7F4F5A
:10103000CE0101960E94C530B801665F7F4FAE01B8
:101040004F5F5F4F8EEC92E00E94C42A86E090E0F2
:101050000E943F327C01F801648175810E945F2DFE
:10106000D8015196FC92EE925097F801EB59FD4F42
:1010700082E0808342E064E0C80144960E94A307B6
:10108000F801EB54FB4F82E191E09183808342E0D1
:1010900064E0C8018A599D4F0E94A30788E090E050
:1010A0000E943F32FC0181E691E0918380831383AB
:1010B00002831582148281E090E097838683D801B1
:1010C0001396FC93EE9312972C960FB6F894DEBF0E
:1010D0000FBECDBFDF91CF911F910F91FF90EF9089
:1010E0000895BF92CF92DF92EF92FF920F931F93DA
:1010F000CF93DF93CDB7DEB7E3970FB6F894DEBF9B
:101100000FBECDBF7C0141E068E171E00E9459074C
:10111000F701E15BFD4F408151811D861E861C82D7
:101120001B8208EE13E020E030E00D831E832F8346
:10113000388781E391E09A838983B701695D7D4FA8
:1011400021E0CE010D960E94851000E010E0C12C38
:10115000D12CE12CF12CCE0101960E943006892B76
:10116000E1F1CE010D960E940D07B82E2DE08217F9
:1011700091F38AE0B81227C0EDE2F0E0EC0FFD1F1A
:10118000E00FF11F1082CE018D960E946E35E114A2
:10119000F10469F481382FE3920718F4880F991F3E
:1011A00002C08FEF9FEF0E9441327C010AC0F6011E
:1011B000EE0FFF1FEE0DFF1D91838083C601019688
:1011C0006C0100E010E0EDE2F0E0EC0FFD1FE00F3D
:1011D000F11FB0820F5F1F4FBECFCE010D960E9450
:1011E0007C1026E230E0A601B701CE01C3960E9432
:1011F000991FC7010E944332E3960FB6F894DEBFF1
:101200000FBECDBFDF91CF911F910F91FF90EF9057
:10121000DF90CF90BF900895CF93DF9300D0CDB7EC
:10122000DEB720910503309106032115310511F435
:1012300029E033E0CE010196821B930B0F900F90B3
:10124000DF91CF9108956F927F928F929F92AF928C
:10125000BF92CF92DF92EF92FF920F931F93CF93A3
:10126000DF93CDB7DEB7CC5BD1400FB6F894DEBFCD
:101270000FBECDBF4C016B01CE0101963C01E12CAC
:10128000F12C54019FEAA91A9DEFB90A00E010E081
:1012900089B190E0F501008002C0959587950A9488
:1012A000E2F780FF99C00F5F1F4F80E590E00E943A
:1012B000E6320135E3EC1E0709F48CC00031F7E299
:1012C0001F0730F3E114F10419F361E0C4010E9437
:1012D0003307CF56DE4F1882C159D140CE56DE4F6C
:1012E0001882C259D140540189EDA81A8DEFB80A6D
:1012F00020E048E151E0B501CE018F569E4F0E949B
:10130000E91141E068E171E0C4010E945907B601AA
:10131000C5010E940A11C356DE4F1882CD59D14033
:10132000C256DE4F1882CE59D140CD56DE4F1982BB
:101330001882C359D14008EE13E020E030E0CB56CC
:10134000DE4F088319832A833B83C559D14081E34B
:1013500091E0CF56DE4F99838883C159D14023E66F
:10136000A601B50181E991E08C0F9D1F0C960E94AA
:1013700085104AE050E0B70161507109CE018F56E7
:101380009E4F0E94EC316E0193E0C90ED11C01E02A
:1013900010E050E5B52E0E151F059CF4F601819165
:1013A00091916F01B89EB001B99E700D11244AE071
:1013B00050E0CE018F569E4F0E9418320F5F1F4F94
:1013C000EACF81E991E08C0F9D1F0C960E947C1062
:1013D00081E023C080E021C0F3011183008300E09D
:1013E00010E089B190E0F501008002C095958795E5
:1013F0000A94E2F780FD07C00F5F1F4F80E590E081
:101400000E94E632EECFF2E0EF0EF11CF3011383FF
:101410000283F4E06F0E711C39CFC454DE4F0FB657
:10142000F894DEBF0FBECDBFDF91CF911F910F911A
:10143000FF90EF90DF90CF90BF90AF909F908F90F4
:101440007F906F900895AF92BF92CF92DF92EF920C
:10145000FF920F931F93CF93DF93CDB7DEB7C054A6
:10146000D1090FB6F894DEBF0FBECDBF5C018B0172
:10147000FB01C080D1806FE370E0C6010E94AB35F4
:10148000009731F4B601CE0181960E94B63511C0A5
:101490007C01EC18FD08FF24A701B601CE0181965E
:1014A0000E94CB35E1E2F0E0EC0FFD1FEE0DFF1DD9
:1014B000108261EA7BE0CE0181960E948C35892BF7
:1014C00009F046C0F8018281938161E070E04096A6
:1014D0000E94B40664E77AE0F801848195810E9455
:1014E000EF3067E479E0F801848195810E94EF3064
:1014F0006AE178E0F801848195810E94EF306DEE19
:1015000076E0F801848195810E94EF3060EC75E00F
:10151000F801848195810E94EF3063E974E0F8015D
:10152000848195810E94EF3066E673E0F801848142
:1015300095810E94EF3069E372E0F8018481958122
:101540000E94EF306BE271E0F801848195817EC0EA
:1015500062E271E0CE0181960E948C35892B09F4FC
:1015600055C063E171E0CE0181960E948C35892BD4
:10157000C1F564E271E0F801808191810E94DA3561
:10158000009721F16DE370E00E94AB3501966C018C
:1015900066E270E00E94AB35009731F4B601CE01EF
:1015A00001960E94B63513C07C01EC18FD08FF249B
:1015B000A701B601CE0101960E94CB35E1E0F0E033
:1015C000EC0FFD1FEE0DFF1D108201C01982BE0140
:1015D0006F5F7F4FC50144960E942309811116C099
:1015E0000EC06DE071E0CE0181960E948C35892B92
:1015F00031F4C5018A599D4F0E94710807C0F80156
:101600008281938140960E94E60622C0F801828181
:10161000938160E070E040960E94B406F801048176
:10162000158160EA70E0C8010E94EF3063E970E064
:10163000C8010E94EF300E940C094AE050E0BC0152
:10164000C8010E94E43161E970E0C8010E94EF30F6
:10165000C05CDF4F0FB6F894DEBF0FBECDBFDF9189
:10166000CF911F910F91FF90EF90DF90CF90BF909F
:10167000AF9008958091CE019091CF01DC01ED9162
:10168000FC910680F781E02D09948091CE01909124
:10169000CF01DC01ED91FC910084F185E02D0994EE
:1016A0000F93CF93DF9300E020E040E060E080ED17
:1016B00091E00E94B93087EB94E00E943F32FC0138
:1016C00087EB94E0DF019C011D9221503040E1F74F
:1016D00013821282118EDF01A55CBD4F1C92119600
:1016E0001C921197909629E113962C9313971696B6
:1016F0001C92169781E491E0958B848B1B9615962E
:101700001C921597EF01C357DB4F18821982A096E0
:101710002B831E828D939C938BE691E09183808333
:10172000F093CF01E093CE01DF91CF910F91089517
:10173000CF92DF92EF92FF920F931F93CF93DF939D
:10174000CDB7DEB7C355D1090FB6F894DEBF0FBED3
:10175000CDBF6C018E010F5B1F4FFC016685778545
:10176000C8010E94232EC8010E94452B882309F43A
:1017700079C0F601118B008BE12CF12CC8010E947D
:10178000D62C882309F465C0C8010E94722B892BCE
:10179000A9F3C8010E947B2B8A3009F047C0E1E021
:1017A000F0E0EC0FFD1FEE0DFF1D1082E114F104BF
:1017B00009F44FC043E050E069E271E0CE010196C8
:1017C0000E94BD35892BD1F660E270E0CE01019612
:1017D0000E94AB35FC0110827C01F2E0EF0EF11C9F
:1017E00060E270E0C7010E94AB35FC011082F60197
:1017F00080899189A081B181109759F16096FFAEDF
:10180000EEAE60976296DFAECEAE629764969FAF03
:101810008EAF6497ED91FC9111970480F581E02DD6
:10182000BE01625B7F4FCD01099513C08D3009F475
:10183000A5CFFFE3EF16F1040CF0A0CFE1E0F0E05C
:10184000EC0FFD1FEE0DFF1D8083C70101967C018B
:1018500095CF61E070E080E090E00E94BE32C80168
:101860000E94952CCD5ADF4F0FB6F894DEBF0FBE05
:10187000CDBFDF91CF911F910F91FF90EF90DF903F
:10188000CF90089502960C94980BFC018281806899
:1018900082839F01245F3F4F448555856685778508
:1018A000868197810C94191A9F92AF92BF92CF9222
:1018B000DF92EF92FF920F931F93CF93DF93EC0190
:1018C000888185FF02C0912C5EC088899989AA8988
:1018D000BB8981159E4FAF41B105A8F7CE010E948B
:1018E000450C982E882379F34C855D856E857F8520
:1018F0008E819F810E9430196B017C018E819F81B6
:1019000025E0B701A60180960E94EE185C010097C1
:10191000D1F280E092E0F5019C011192215030401B
:10192000E1F711E0AE81BF8112960C91129710176A
:10193000A0F4ED91FC9111970280F381E02D9501C7
:10194000B701A601410F511D611D711DCD01099502
:10195000882309F4B8CF1F5FE5CF10E020E030E026
:1019600089E0000F111F221F331F8A95D1F7488984
:1019700059896A897B89400F511F621F731F488BE9
:10198000598B6A8B7B8B892DDF91CF911F910F91A2
:10199000FF90EF90DF90CF90BF90AF909F90089511
:1019A000CF93DF93EC01262F4C895D896E897F8967
:1019B0008E819F8180960E94EE189C01009761F0B5
:1019C0008C819D818F70992745E0880F991F4A95DA
:1019D000E1F7820F931F02C080E090E0DF91CF918A
:1019E0000895FC018081811114C080E2DF01982FED
:1019F0001D929A95E9F777836683DB0115969C9192
:101A0000903119F0903229F480E4808381E0828360
:101A1000089580E008952F923F924F925F926F92C7
:101A20007F928F929F92AF92BF92CF92DF92EF926E
:101A3000FF920F931F93CF93DF9300D000D0CDB7C9
:101A4000DEB79C838B834B017A01DC018C91882368
:101A500009F112969C9190FF1DC027C0D380D82217
:101A6000A114B10409F09CC0D1109AC0452B462B9B
:101A7000472B09F47EC0AB81BC811C964D915D91D2
:101A80006D917C911F9729813A81CF010E9448195D
:101A900087FF7EC0AB81BC8111968C9111978260CB
:101AA00011968C938FEF9FEFE3C083FF17C0EB81FC
:101AB000FC81808D918DA28DB38D40895189628981
:101AC0007389841B950BA60BB70BA70160E070E030
:101AD000481759076A077B07D0F018C085FF17C061
:101AE000AB81BC811696ED91FC9117978681978109
:101AF00055E0880F991F5A95E1F750962D913C912A
:101B00005197821B930B8E159F0508F47C0187016A
:101B1000EB81FC813C96FA83E983612C42E0742ED0
:101B20000115110509F468C0AB81BC8150964D9137
:101B30005D916D917C9153975A01B1E0BB22EB818D
:101B4000FC8120810680F781E02DDB01CA0139E0AC
:101B5000B695A795979587953A95D1F725FF7ECFAE
:101B6000448D558D668D778D480F591F6A1F7B1FD9
:101B70002BC026FD02C0EB81FC81848D958DA68D46
:101B8000B78DEB81FC8184879587A687B78708C0CE
:101B9000811106C0EB81FC818081807769F57ACF65
:101BA000AB81BC811C964D915D916D917C911F978D
:101BB00016968D919C9117970E943019AB01BC012C
:101BC0004D0D511D611D711DEB81FC818681978139
:101BD000A114B104B1F50115F2E01F0790F1DC0189
:101BE00093962D903D904D905C909697421553059D
:101BF0006405750529F425C0C701801B910B38C009
:101C0000DC01ED91FC910190F081E02D94010995AA
:101C1000882309F43FCFC12CF2E0DF2E8C0C9D1CF1
:101C2000EB81FC8180899189A289B3898C0D9D1DEE
:101C3000A11DB11D808B918BA28BB38B0C191D093B
:101C40006FCF93012A193B0968012017310708F467
:101C5000690120E080960E94EE18009709F41ACFDF
:101C6000BC016A0D7B1DA601C4010E94A235D6CF1E
:101C70000F900F900F900F90DF91CF911F910F91C8
:101C8000FF90EF90DF90CF90BF90AF909F908F909C
:101C90007F906F905F904F903F902F9008958F921C
:101CA0009F92AF92BF92CF92DF92EF92FF920F93EB
:101CB0001F93CF93DF931F92CDB7DEB78C01FC014A
:101CC00080889188A288B388C484D584E684F78408
:101CD00041E050E0BE016F5F7F4F0E940B0D019706
:101CE00019F4898190E002C08FEF9FEF8F3FFFEFE3
:101CF0009F0749F0F801808A918AA28AB38AC48634
:101D0000D586E686F7860F90DF91CF911F910F91D0
:101D1000FF90EF90DF90CF90BF90AF909F908F900B
:101D20000895FF920F931F93CF93DF931F92CDB728
:101D3000DEB78C01262FFC014089518962897389A5
:101D4000DB01CA01E5E0B695A79597958795EA95D9
:101D5000D1F7F82FFF70FF2E11F0211117C041E0CD
:101D600050E0BE016F5F7F4FC8010E940B0D8130B4
:101D700019F080E090E01CC0F80140895189628927
:101D80007389415E5F4F6F4F7F4F05C0405E5F4F6D
:101D90006F4F7F4FF801408B518B628B738BF80133
:101DA000868197818796F0E2FF9E800D911D112418
:101DB0000F90DF91CF911F910F91FF9008954F9257
:101DC0005F926F927F928F929F92AF92BF92CF92CB
:101DD000DF92EF92FF920F931F93CF93DF93EC016B
:101DE0006A017B014C845D846E847F84A881AA2370
:101DF00009F48CC0411551056105710529F41C8653
:101E00001D861E861F867CC0A3FF0BC0488D598D82
:101E10006A8D7B8D4C155D056E057F0508F476C0D7
:101E200014C0A5FF12C0EE81FF8186819781F5E085
:101E3000880F991FFA95E1F7A0E0B0E084179507A5
:101E4000A607B70708F462C05BC0088919892A8908
:101E50003B89EE81FF81848190E00996B901A80158
:101E60004150510961097109082E04C076956795A2
:101E7000579547950A94D2F746015701B1E08B1A5E
:101E80009108A108B10804C0B694A79497948794C8
:101E90008A95D2F784169506A606B70620F0012B80
:101EA000022B032B81F4A6FF05C0848D958DA68D92
:101EB000B78D04C08C8D9D8DAE8DBF8D8C879D8719
:101EC000AE87BF8704C0841A950AA60AB70A8E0196
:101ED000045F1F4F81149104A104B10489F04C8563
:101EE0005D856E857F8598018E819F810E9448194E
:101EF00091E0891A9108A108B10818165CF306C090
:101F0000C88AD98AEA8AFB8A81E005C04C865D8648
:101F10006E867F8680E0DF91CF911F910F91FF90B9
:101F2000EF90DF90CF90BF90AF909F908F907F9079
:101F30006F905F904F9008958F929F92AF92BF9253
:101F4000FF920F931F93CF93DF93EC01F22E80E269
:101F5000DE011D928A95E9F7FB01868197819F83B7
:101F60008E835D834C83848C958CA68CB78C8886FD
:101F70009986AA86BB86FC01B7964F705527B5E0B7
:101F8000440F551FBA95E1F7E40FF51F338533FF72
:101F900003C0188280E054C03771388323852871CC
:101FA00011F4386038830B832F2D227319F02881A8
:101FB000217179F72F2D2F702A83DC0193964D9193
:101FC0005D916D917C9196974C8B5D8B6E8B7F8B29
:101FD0004489558960E070E0BA0155274427028D95
:101FE000138D20E030E0402B512B622B732BF4FE3D
:101FF0000AC04115510561057105E9F00E94BB1A3F
:10200000811119C0C6CF4C8F5D8F6E8F7F8F448D2D
:10201000558D668D778D488F598F6A8F7B8FF5FE32
:102020000EC0488D598D6A8D7B8DCE010E94DF0ECA
:10203000811105C0AECF8A8180688A83F0CF81E0AC
:10204000DF91CF911F910F91FF90BF90AF909F9024
:102050008F9008950F931F93CF93DF93EC018881A6
:10206000882309F443C08A8187FF38C061E0CE012C
:102070000E94D00C8C01009729F4898181608983AA
:1020800080E035C0FC018081853EB9F3888183FF03
:1020900008C0488D598D6A8D7B8D448F558F668F12
:1020A000778F4C8D5D8D6E8D7F8DF801538F428FB4
:1020B000758B648BE091D601F091D701309759F080
:1020C000B8016A5E7F4FC80148960995F801808D76
:1020D000918D938B828B8A818F778A838E819F816A
:1020E00080960E949B18882341F201C081E0DF9115
:1020F000CF911F910F910895CF93DF93EC010E9430
:102100002A101882DF91CF910895CF92DF92EF923B
:10211000FF920F931F93CF93DF93CDB7DEB7E39773
:102120000FB6F894DEBF0FBECDBF8C017B015BAB59
:102130004AABD22E19821A82FC018081882311F0C9
:1021400080E059C0FB0180818077D1F3EAA9FBA927
:1021500080818F32D9F4EAA9FBA980818F3221F4E2
:102160003196FBABEAABF7CFF7016681778181113E
:1021700004C0C8010E94F10C3EC0CE0101960E942D
:10218000F10C8823E9F2CE0101967C0150E2C52EC4
:10219000AE014E5C5F4FBE016F5D7F4F8AA99BA968
:1021A0000E941B14882361F2EAA9FBA9808188237D
:1021B000D1F021E0AE014F5D5F4FB701C8010E9431
:1021C0004F16882309F4BCCFF801DE0111968C2D3F
:1021D00001900D928A95E1F7C8010E947C10FE01E2
:1021E00031967F01D5CF2D2DAE014F5D5F4FB701E9
:1021F000C8010E944F16E3960FB6F894DEBF0FBEDB
:10220000CDBFDF91CF911F910F91FF90EF90DF90A5
:10221000CF900895CF93DF93CDB7DEB7A0970FB6D9
:10222000F894DEBF0FBECDBFAB0119821A8222E047
:10223000BC01CE0101960E948510882321F0CE01B9
:1022400001960E941615A0960FB6F894DEBF0FBE39
:10225000CDBFDF91CF910895AF92BF92CF92DF9221
:10226000EF92FF920F931F93CF93DF93CDB7DEB71B
:10227000A0970FB6F894DEBF0FBECDBF8C017B01D7
:10228000FB018081807709F492C023ECC8010E9491
:102290004F16882309F48BC081E0F801828360E146
:1022A000D62ED082C8010E94540C882309F47FC026
:1022B000F80184859585A685B785848F958FA68F2F
:1022C000B78F40E050E0BA01C8010E94DF0EC8019C
:1022D0000E942A10882309F46AC061E0C8010E94A4
:1022E000D00C009709F463C0FC01D38620E2DE0124
:1022F000119601900D922A95E1F7FC01A488B5880A
:10230000C28CD38C8EE28983FE013296CE010C966C
:1023100020E22193E817F907E1F7F801448D558D84
:10232000668D778D868197810E943019AB01BC0143
:10233000F8018681978121E080960E94EE1800972F
:10234000B1F1BE8AAD8ADC8ECB8E20E2FE013196E1
:10235000DC0101900D922A95E1F72EE22A83F70124
:10236000448D558D668D778D7E8B6D8B5C8F4B8FFD
:1023700020E2FE013196DC01909601900D922A95A3
:10238000E1F7F801868197818096A0960FB6F894C0
:10239000DEBF0FBECDBFDF91CF911F910F91FF9098
:1023A000EF90DF90CF90BF90AF900C949B1880E09F
:1023B000A0960FB6F894DEBF0FBECDBFDF91CF91D0
:1023C0001F910F91FF90EF90DF90CF90BF90AF9053
:1023D0000895BF92CF92DF92EF92FF920F931F93D7
:1023E000CF93DF93CDB7DEB7E3970FB6F894DEBF98
:1023F0000FBECDBF7C018B015BAB4AABC22E1982F5
:102400001A82FC018081882311F0D12C5EC0FB016F
:1024100080818077D1F3EAA9FBA980818F32A9F46A
:10242000EAA9FBA980818F3221F43196FBABEAAB9C
:10243000F7CFF80166817781CE0101960E94F10CF9
:10244000882319F38E010F5F1F4F70E2B72EAE0184
:102450004E5C5F4FBE016F5D7F4F8AA99BA90E94B2
:102460001B14882391F2EAA9FBA98081882329F112
:1024700021E0AE014F5D5F4FB801C7010E944F16CA
:10248000D82E81110BC0CC2001F1AE014F5D5F4F02
:10249000B801C7010E942C118823B9F0F701DE01B1
:1024A00011968B2D01900D928A95E1F7C7010E943C
:1024B0007C108E010F5F1F4FCACFAE014F5D5F4F83
:1024C000B801C7010E942C11D82E8D2DE3960FB6AE
:1024D000F894DEBF0FBECDBFDF91CF911F910F915A
:1024E000FF90EF90DF90CF90BF9008952F923F9292
:1024F0004F925F926F927F928F929F92AF92BF9214
:10250000CF92DF92EF92FF920F931F93CF93DF93BF
:10251000EC015B014A01888183FF0EC08A8181FF43
:102520000BC082FF0FC0488D598D6A8D7B8DCE0107
:102530000E94DF0E811106C08981816089838FEF3F
:102540009FEF06C1A40160E070E088899989AA899B
:10255000BB8980959095A095B09584179507A6079F
:10256000B70750F364011E012CE0220E311C48898C
:1025700059896A897B89C114D10409F4C7C08E8145
:102580009F812A013B0129E07694679457944794F0
:102590002A95D1F7DC0113961C9114217A01B1E040
:1025A000FB22111134C0E114F10489F54C855D85DD
:1025B0006E857F85411551056105710569F09101B1
:1025C0000E94481987FDB8CF811121C0CE010E9419
:1025D000450C81111CC0B0CF8C8D9D8DAE8DBF8DF3
:1025E0000097A105B10579F4CE010E94450C88231E
:1025F00009F4A2CF8C859D85AE85BF858C8F9D8F7C
:10260000AE8FBF8F04C08C879D87AE87BF874C85F8
:102610005D856E857F858E819F810E943019AB011B
:10262000BC01410F511D611D711DEE81FF81E1143F
:10263000F10421F4C11422E0D206B8F580E092E062
:102640008E199F0986018C159D0508F48C01E114F3
:10265000F10479F4488859886A887B88888D998D37
:10266000AA8DBB8D481659066A067B0610F025E038
:1026700001C021E0CF0180960E94EE18009709F476
:102680005BCFA801B5018E0D9F1D0E94A235E00E03
:10269000F11EE11482E0F80641F58E819F8180965B
:1026A0000E949B18811121C047CF83A194A1A5A1AD
:1026B000B6A184179507A607B70741F410A28FEFBC
:1026C0009FEFDC0183A394A3A5A3B6A38E819F8172
:1026D000DC01ED91FC910280F381E02D95010995DB
:1026E000882309F429CF00E012E088899989AA8912
:1026F000BB89800F911FA11DB11D888B998BAA8B5F
:10270000BB8BA00EB11EC01AD10A31CF888D998D16
:10271000AA8DBB8D2A8184179507A607B70728F4D1
:10272000488F598F6A8F7B8F06C08091D601909118
:10273000D701892B11F020682A838A8183FD02C08A
:10274000C40106C0CE010E942A108111F9CFF4CE37
:10275000DF91CF911F910F91FF90EF90DF90CF907D
:10276000BF90AF909F908F907F906F905F904F90B1
:102770003F902F900895653040F4FC01E60FF11D65
:10278000E60FF11D8181928108956B3040F4FC01C8
:10279000E60FF11DE60FF11D8481958108956131E9
:1027A00040F4FC01E60FF11DE60FF11D86819781D3
:1027B000089580E090E00895FC0190E080E080FBC7
:1027C000879587F92191820F9F5F9B30C1F708950C
:1027D000CF93DF93FC01DB0118964D915D916D91D4
:1027E0007C911B97452B462B472B41F416966D91F8
:1027F0007C911797DF91CF910C94F10C80E2EF015F
:1028000019928A95E9F780E1808381E082831696A8
:102810008D919C9117979783868318964D915D9122
:102820006D917C911B97448F558F668F778F81E0D8
:10283000DF91CF910895CF92DF92EF92FF920F93A5
:102840001F93CF93DF93FB01DC0101962C91203283
:10285000D9F3B483A383ED01BE016A1B7B0B89917D
:10286000811105C0CD01860F971FEC0118C08F3272
:10287000C9F38C3511F480E0D0C0982F977F923245
:10288000D1F38A33C1F3982F9F7B9C33A1F392EC51
:10289000980F923080F380528F35F0F2ECCF1C2FDE
:1028A0003D2F29912032D9F32F32C9F3EA01188341
:1028B0003983EC016115710561F08A918E3211F056
:1028C000803219F461507109F5CF6F3F710509F03D
:1028D00094F67283618380E090E020E2EF01C80FFC
:1028E000D91F2E8301968B309105C1F7ED01CE01E2
:1028F0008A1B9B0B29912E32D1F32032C1F351E078
:10290000009709F050E09B012150310938F407E0AD
:1029100010E0C12CF12CC8E0EC2E0FC0ED01C20F6D
:10292000D31F48814E3281F7F2CFED01C80FD91F76
:102930004881403231F450E0019686179707ACF396
:1029400043C04E3221F428173907A9F704C0423298
:10295000A1F04C3791F0C6EDC40FC63010F44D32E3
:1029600061F4C6ECC40FC63040F0C5EAC40FC330F2
:1029700020F0CFEDC40FCE3530F08217930709F168
:1029800050E04FE503C082179307D9F00117D0F14B
:10299000CFE9C40FCA3118F44052FE2805C0CFEB6E
:1029A000C40FCA3108F4CE28DD24D394D10EEF0130
:1029B000C10FD11D4E8346E04D1508F0D5821D2D67
:1029C000BBCF0A30C9F450E08681803209F453CF7E
:1029D000552339F0CF2011F082E001C08F2D808384
:1029E00009C081E080838581E80FF11D8EE7868331
:1029F00081E3878381E011C0C9010AE018E040E16A
:102A0000E42E9ACF0A30F9F228173907E4F2C90107
:102A10000AE018E050E1E52E8ECFDF91CF911F91B3
:102A20000F91FF90EF90DF90CF900895BF92CF92DB
:102A3000DF92EF92FF920F931F93CF93DF93CDB767
:102A4000DEB7A0970FB6F894DEBF0FBECDBF8C01E6
:102A500019821A82DC018C9183FD02C080E089C05A
:102A6000F801828181FFFACF448D558D668D778D77
:102A7000411551056105710549F0D80116968D91F2
:102A80009C9117970E94BB1A882341F361E0C8010B
:102A90000E94D00C7C01009709F30E94DC13D82E11
:102AA00085EEF7018083D8011C9216968D919C913A
:102AB000179780960E949B18882381F2F8019381D2
:102AC000992309F456C0B801CE0101960E94E8137B
:102AD000882321F2BB24B39425EEC22EF801838112
:102AE0008B1508F4BBCFEB2CF12CD80114964D912B
:102AF0005C9115974E195F0960E070E095E0440F16
:102B0000551F661F771F9A95D1F7CE0101960E9437
:102B1000DF0E882309F4A2CF60E0CE0101960E9467
:102B2000910EFC01009709F499CF83858F3009F04D
:102B300095CF2081822F8F7190E0E816F90609F079
:102B40008DCF8585D8128ACFC082D8011696ED9197
:102B5000FC91179780A1816080A326FF08C016967C
:102B60008D919C91179780960E949B1802C0B394F8
:102B7000B5CFA0960FB6F894DEBF0FBECDBFDF91E4
:102B8000CF911F910F91FF90EF90DF90CF90BF906A
:102B90000895AF92BF92CF92DF92EF92FF920F9380
:102BA0001F93CF93DF937C01EB01AD8002E010E037
:102BB0007EE7B72E6E0186E0C80ED11C89819A810E
:102BC0009801280F391FEB81FC81AF01480F591F75
:102BD000E417F50779F0C90165E0880F991F6A9538
:102BE000E1F7820F931F2191332727FD3095282786
:102BF0003927EECFE3E0EA1510F453E0A52E84E088
:102C00008A0D922F9F70E82FF0E09A3010F4905DBB
:102C100001C0995CEC0FFD1F968344E03695279523
:102C20004A95E1F78150A81660F3FE01EA0DF11D07
:102C3000B68240E050E0BA01C7010E94DF0E61E0B9
:102C4000C7010E94910EBC01009731F481E0F701A9
:102C500091819923C9F017C0FC018081882359F024
:102C6000838583FDECCF4BE050E0C6010E94953593
:102C7000892B29F702C081E007C00F5F1F4F043680
:102C8000110509F09BCF80E0DF91CF911F910F914B
:102C9000FF90EF90DF90CF90BF90AF9008952F926C
:102CA0003F924F925F926F927F928F929F92AF92DC
:102CB000BF92CF92DF92EF92FF920F931F93CF9329
:102CC000DF93CDB7DEB72B970FB6F894DEBF0FBEFC
:102CD000CDBF3C017B876A877A012A83DA0111968E
:102CE0008D909C901297FB018081807711F480E099
:102CF000F3C1D3018C918111FACFFA0180818370E5
:102D000009F4E1C1C4010C966DE070E00E94EC335F
:102D100055245394560E40E050E0BA018A859B85B5
:102D20000E94DF0E1C821D821982412C10E000E0FF
:102D30001B821701B6E02B0E311CAA85BB8550966D
:102D40002D913D914D915C91539765E05695479536
:102D5000379527956A95D1F7590161E0CD0128870C
:102D60003E8349875F830E94910E6C0128853E81D6
:102D7000009739F4EA85FB858181882309F488C0AE
:102D8000B6CFDC018C91853E11F081110AC0111182
:102D900002C02C833D83151508F41F5F811104C008
:102DA00077C0151528F005C0853E19F400E0C5CFA1
:102DB00010E08E32D9F3F60193859F3009F046C0BA
:102DC000011108C086FFB9CF082F0F71258529830F
:102DD000402E07C04A948411E9CF858529812813A4
:102DE000E5CF842D90E00197ADE0A89F5001A99F09
:102DF000B00C1124A814B904C8F620E0622FC60153
:102E000028870E94BB132885A814B90419F4892BBC
:102E100069F693CF8F3F910509F040F63FEB380FED
:102E20003A3108F4805EA5014F5F5F4FD7011396DA
:102E3000ED91FC911497EA0DFB1D90813FEB390F4A
:102E40003A3108F4905E8913B1CF40C193FDAECF03
:102E5000002351F0B1E04B124ACFC6010E94DC13AF
:102E60002981821344CF10C04BE050E0B101C6016C
:102E70000E949535892B09F060CFD7018C9180FF96
:102E800003C021E02B8359CF2A8127FF14C12FCF04
:102E90008A818274823409F02ACF112359F0AC80E0
:102EA000BD8008C060E08A859B850E94910E892BB9
:102EB00021F01F5F1515B0F318C0AA85BB851196C8
:102EC0008C91882391F013CF8A859B850E94540CA6
:102ED000882309F40CCFAA85BB851696ED91FC9149
:102EE00017978281823018F4105F151568F32B81D3
:102EF000222341F0B7018A859B850E94C91588234A
:102F000009F4F5CEA50160E070E025E0440F551FFF
:102F1000661F771F2A95D1F78A859B850E94DF0E51
:102F2000882309F4E4CE0FEF050D102F8FE0482E13
:102F3000670186E0C80ED11C9DE0592E49C060E0B3
:102F40008A859B850E94910E5C01009709F4CFCE83
:102F5000AA85BB851696ED91FC91179780A181609B
:102F600080A3412F101301C04064F50140834386C4
:102F70001486C60149870E94DC13D5011D968C93E7
:102F80001D975B961C921E925A97F70123813481FC
:102F900049854F7150E041505109549EC001559EE2
:102FA000900D1124F50160E088159905A0F4D90170
:102FB000A80FB91F4C91552747FD50956530B0F4C7
:102FC000528341836F5F019632966D3069F71150DD
:102FD0001111B5CF13C041E050E08815990511F4E7
:102FE00040E050E0519541955109E8CF6B3018F41D
:102FF00055834483E7CF57834683E4CFEA85FB8537
:1030000080899189A289B38915E0B695A79597958E
:1030100087951A95D1F75C0160E0CF010E94910E6F
:103020006C01009709F463CE80E2D6011D928A9567
:10303000E9F7F70136968BE0D60101900D928A955B
:10304000E1F7F70180818871D6011C968C93E0919D
:10305000D601F091D701309739F0B601625F7F4F0A
:10306000C6014096099509C081E298E2F601918B6C
:10307000808B80E098E097878687D60150968D9167
:103080009C91519753969C938E93529759969C93EB
:103090008E9358971E968D919C911F9757969C934F
:1030A0008E935697AA85BB851696ED91FC9117973E
:1030B00080A1816080A32A81A5016A857B85C301E7
:1030C0000E949C0F09C05524539425CE2F5F2D30AC
:1030D00009F433CE5A0192CE2B960FB6F894DEBF88
:1030E0000FBECDBFDF91CF911F910F91FF90EF9059
:1030F000DF90CF90BF90AF909F908F907F906F9018
:103100005F904F903F902F9008956115710581F069
:10311000DB010D900020E9F7AD0141505109461B3C
:10312000570BDC01ED91FC910280F381E02D0994B5
:1031300080E090E00895BF92CF92DF92EF92FF92ED
:103140000F931F93CF93DF93EC01888180FF39C0E9
:1031500089819A818E01095F1F4FDC01ED91FC91FD
:103160004B815C816D817E810280F381E02D98012D
:103170000995B82E811102C0B12C25C0888181FD2E
:1031800004C088818E7F88831EC0A981BA81ED9199
:10319000FC9111971C964D915D916D917C911F97BB
:1031A000CB80DC80ED80FE804C0D5D1D6E1D7F1D93
:1031B0000280F381E02D9801CD0109958111E1CFC5
:1031C000DBCFBB24B3948B2DDF91CF911F910F9157
:1031D000FF90EF90DF90CF90BF900895CF92DF9255
:1031E000EF92FF921F93CF93DF93EC016A017B0173
:1031F000122F4B815C816D817E814C155D056E05C2
:103200007F0501F10E949B18811103C080E090E0CE
:103210001FC012FF06C01882CB82DC82ED82FE82C4
:1032200011C089819A81DC01ED91FC910190F081BE
:10323000E02D9E01295F3F4FB701A601099581113D
:10324000EACFE4CF13708881812B8883CE01079663
:10325000DF91CF911F91FF90EF90DF90CF90089575
:103260004250510961097109FC01048004C0440FF6
:10327000551F661F771F0A94D2F780899189A2890A
:10328000B389480F591F6A1F7B1FCB01BA010895EC
:10329000CF92DF92EF92FF920F931F93CF93DF9322
:1032A000EC016A017B0189018D81803251F5E7E0F3
:1032B0007695679557954795EA95D1F78C899D89BD
:1032C000AE89BF89480F591F6A1F7B1F22E0CE01BC
:1032D00080960E94EE18009711F48FEF40C0E8949A
:1032E000C7F8DD24EE24FF24F601EE0FFF1FEE0FDA
:1032F000FF1FE80FF91F40815181628173817F7048
:103300001DC0803151F74C895D896E897F894D0DD3
:10331000511D611D711D22E0CE0180960E94EE18A4
:103320000097D9F2DD24EE24FF24F601EE0FFF1FF3
:10333000E80FF91F4081518160E070E0888D998D20
:10334000AA8DBB8D84179507A607B70738F0F8013B
:10335000408351836283738381E001C080E0DF9109
:10336000CF911F910F91FF90EF90DF90CF90089534
:103370008F929F92AF92BF92CF92DF92EF92FF9285
:103380000F931F936A017B0148015901FC012581BC
:10339000203231F517E076956795579547951A9540
:1033A000D1F70489158926893789400F511F621F7B
:1033B000731F23E080960E94EE18009799F0E8941E
:1033C000C7F8DD24EE24FF24F601EE0FFF1FEE0FF9
:1033D000FF1FE80FF91F80829182A282B3821DC075
:1033E000203111F080E01AC0FC01448955896689BA
:1033F00077894D0D511D611D711D23E080960E943E
:10340000EE18009779F3DD24EE24FF24F601EE0F89
:10341000FF1FE80FF91F9182808281E01F910F91B9
:10342000FF90EF90DF90CF90BF90AF909F908F90E4
:1034300008953F924F925F926F927F928F929F92E8
:10344000AF92BF92CF92DF92EF92FF920F931F93B2
:10345000CF93DF93CDB7DEB728970FB6F894DEBFD2
:103460000FBECDBF9E838D832A013B0138872F83FA
:10347000411551056105710531F4FC018084918489
:10348000A284B38402C04A015B0175016401FFEFAD
:10349000CF1ADF0AEF0AFF0AED81FE81808D918D40
:1034A000A28DB38D8C159D05AE05BF0528F402E0F5
:1034B000C02ED12CE12CF12C9E012F5F3F4FB70184
:1034C000A6018D819E810E94481987FD1DC0882319
:1034D00041F089819A81AB81BC81892B8A2B8B2B0E
:1034E00031F0C814D904EA04FB0489F60DC00FEFCB
:1034F0001FEF2FEF3FE0B701A6018D819E810E9453
:10350000B819382E811102C0312C1CC0411451044D
:103510006104710459F097018601B301A2018D8104
:103520009E810E94B819811107C0EECFED81FE8106
:10353000C086D186E286F386EF81F885C082D1828B
:10354000E282F382832D28960FB6F894DEBF0FBE79
:10355000CDBFDF91CF911F910F91FF90EF90DF9042
:10356000CF90BF90AF909F908F907F906F905F9023
:103570004F903F9008959F92AF92BF92CF92DF926B
:10358000EF92FF920F931F93CF93DF9300D000D061
:10359000CDB7DEB75C016A017B019E012F5F3F4F13
:1035A000B701A601C5010E944819982E87FF02C0E5
:1035B00080E01EC000E010E09801B701A601C5013F
:1035C0000E94B8198823A1F3F501408551856285D1
:1035D0007385C416D506E606F70620F4C086D186A4
:1035E000E286F386C980DA80EB80FC809110D5CF2B
:1035F0000F900F900F900F90DF91CF911F910F912F
:10360000FF90EF90DF90CF90BF90AF909F90089584
:10361000CF92DF92EF92FF920F931F93CF93DF939E
:10362000EC01162F1D8281E090E0A0E0B0E08887D9
:103630009987AA87BB87DAA3C9A318A28FEF9FEF48
:10364000DC018BA39CA3ADA3BEA3662321F165304F
:1036500008F0BFC020E040E050E0BA01CE01809603
:103660000E94EE18009709F4B4C0FC0100E1109F1D
:10367000E00DF11D1124E255FE4F80818F7709F096
:10368000A8C0C084D184E284F384C114D104E104CD
:10369000F10421F49EC0C12CD12C760120E0B701A9
:1036A000A601CE0180960E94EE18FC01009709F455
:1036B00090C0838594858115924009F08AC08089E5
:1036C000823009F086C086859785892B09F481C0F0
:1036D00035853A838FEF830F8B831C8289E090E0DE
:1036E00021E0321741F0019709F473C0220F4C8199
:1036F0004F5F4C83F6CF468957894115510519F024
:1037000060E070E004C044A155A166A177A14C8798
:103710005D876E877F878685978597018601080F6D
:10372000191F211D311D0C8B1D8B2E8B3F8B818909
:1037300092899F838E83440F551F661F771F400F0A
:10374000511F621F731F4C8F5D8F6E8F7F8FB5E08F
:10375000880F991FBA95E1F781509E4F892F9927BD
:103760008695480F591F611D711D488B598B6A8BB7
:103770007B8B83899489009719F0A0E0B0E004C0A6
:1037800080A191A1A2A1B3A197018601041B150BF1
:10379000260B370BB901A801480F591F6A1F7B1F61
:1037A0000C8004C076956795579547950A94D2F793
:1037B000DB01CA010196A11DB11D888F998FAA8FC7
:1037C000BB8F453F1FE051076105710520F48CE078
:1037D0008D8380E012C0453F5F4F6105710510F495
:1037E00080E109C084A595A5A6A5B7A58C8F9D8F5E
:1037F000AE8FBF8F80E28D8381E0DF91CF911F91EB
:103800000F91FF90EF90DF90CF90089590E022E02D
:10381000281740F0892F806A86958CBD909591700D
:103820009DBD08959730B0F7220F953010F431E028
:1038300001C032E0930FECCF8FEF8EBD0DB407FEC9
:10384000FDCF8EB508958EBD0DB407FEFDCF089552
:1038500061E0FC0182810E948D338FEF0C94231C68
:10386000CF93DF93EC018C810E94061C60E08A817B
:10387000DF91CF910C948D33CF92DF92EF92FF9234
:103880000F931F93CF93DF93EC018B017A010E947A
:103890008F326B010E941C1C8D838F3F49F40E9464
:1038A0008F326C197D096D327140A0F381E103C044
:1038B0008E3F39F08FE08B83CE010E94281C80E080
:1038C00028C0E114F104E1F081E0E81AF1088FEF7B
:1038D0008EBDF8012FEFCF01801B910B8E159F0538
:1038E00038F40DB407FEFDCF8EB52EBD8193F3CF16
:1038F0000DB407FEFDCF8EB5F801EE0DFF1D8083E0
:103900001D820E941C1C0E941C1CCE010E94281CAF
:1039100081E0DF91CF911F910F91FF90EF90DF90A9
:10392000CF9008950F931F93CF93DF93EB010E94E5
:103930008F328B010E941C1C8F3F49F00E948F32F6
:10394000601B710B6C177D07A8F380E001C081E05C
:10395000DF91CF911F910F910895FF920F931F93C5
:10396000CF93DF9300D000D0CDB7DEB78C01F62E19
:1039700029833A834B835C830E94301C68E572E0A4
:10398000C8010E94921C8F2D80640E94231C8C8190
:103990000E94231C8B810E94231C8A810E94231C6D
:1039A00089810E94231CF11002C085E901C087E8CB
:1039B0000E94231C8CE0F81202C00E941C1CF12CF7
:1039C0000E941C1CF801858387FF05C0FFEFFF16CE
:1039D00011F0F394F5CF0F900F900F900F90DF91AF
:1039E000CF911F910F91FF900895BF92CF92DF92D8
:1039F000EF92FF920F931F93CF93DF93EC01B22EC0
:103A00001E821B82798368834A830E948F328B01D6
:103A100061E08A810E94543361E08A810E948D3383
:103A20002A9A229A239A259A80E48C830E94061C63
:103A30002AE0F22E8FEF0E94231CFA94D9F720E09F
:103A400030E0A90160E0CE010E94AD1C813049F058
:103A50000E948F32601B710B613D774080F381E0E3
:103A600051C02AEA31E040E050E068E0CE010E9417
:103A7000AD1C853011F481E00AC094E0F92E0E945B
:103A80001C1C8D83FA94D9F78A3A59F482E08E830C
:103A90008E81823079F4C12CD12CE12C80E4F82E77
:103AA0000CC00E948F32601B710B613D7740C8F2E1
:103AB00082E028C0C12CD12C760120E030E0A901A1
:103AC00067E3CE010E94AD1CA701960169E2CE0119
:103AD0000E94AD1C882349F00E948F32601B710B3D
:103AE000613D774050F38AE00DC08E818230E9F469
:103AF00020E030E0A9016AE3CE010E94AD1C8823DA
:103B000039F088E08B83CE010E94281C80E012C02F
:103B10000E941C1C807C803C11F483E08E830E94F8
:103B20001C1C0E941C1C0E941C1CCE010E94281CF4
:103B3000BC8281E0DF91CF911F910F91FF90EF90B8
:103B4000DF90CF90BF9008950F931F93CF93DF9393
:103B5000EC0189018E81833039F039E0440F551F23
:103B6000661F771F3A95D1F79A01AB0161E1CE014B
:103B70000E94AD1C81110AC040E052E0B801CE01A4
:103B8000DF91CF911F910F910C943C1C84E08B83AB
:103B9000CE010E94281C80E0DF91CF911F910F91F0
:103BA00008950F931F93CF93DF93EC01862F8A0123
:103BB0000E94231CF80180818EBD818122E030E0CB
:103BC0000DB407FEFDCF8EBD2115F2E03F0739F0A1
:103BD000F801E20FF31F80812F5F3F4FF1CF0DB44B
:103BE00007FEFDCF8FEF0E94231C8FEF0E94231C46
:103BF0000E941C1C8D838F71853039F083E18B838B
:103C0000CE010E94281C80E001C081E0DF91CF91AD
:103C10001F910F9108950F931F93CF93DF93EC01A2
:103C200089018E81833039F089E0440F551F661F6A
:103C3000771F8A95D1F79A01AB0168E1CE010E9406
:103C4000AD1C882319F086E08B830CC0A8016EEFB1
:103C5000CE010E94D11D182F882321F0CE010E9491
:103C6000281C04C0CE010E94281C10E0812FDF9187
:103C7000CF911F910F910895CF93CFB7F894809172
:103C8000DD01811116C061E08AE00E948D3361E0A0
:103C90008AE00E9454338CB580618CBD8CB5806401
:103CA0008CBD61E08DE00E94543361E08BE00E94A6
:103CB00054338091DD018F5F8093DD01CFBFCF91C1
:103CC00008951F920F920FB60F9211242F933F93D6
:103CD0004F935F936F937F938F939F93AF93BF9314
:103CE000EF93FF938091DF010E94C3332091E301A2
:103CF0003091E4012F5F3F4F3093E4012093E301C3
:103D00009091E201953618F096E09093DE01909143
:103D1000DE019430C9F128F4923069F09330D1F08B
:103D20005EC0953009F451C0963009F058C091E05A
:103D30009093AF0251C0811152C02091E3013091A4
:103D4000E4012436310508F442C01092AF0210920B
:103D5000E2011CC0813009F042C0E091E20191E033
:103D60009E0F9093E201F0E02091E3013091E40195
:103D7000EE0FFF1FE252FE4F308727831092E401BF
:103D80001092E30194E029C0811117C0E091E20193
:103D900091E09E0F9093E201F0E02091E3013091D9
:103DA000E401EE0FFF1FE252FE4F3087278310928F
:103DB000E4011092E30193E010C02091E3013091FF
:103DC000E4012536310558F007C0811108C0109272
:103DD000E4011092E30103C095E09093DE0190911D
:103DE000E1019923B9F081110AC08091E001882393
:103DF00021F08091E00161E009C02D9A0BC0809113
:103E0000E001882331F08091E00160E00E948D3371
:103E100001C02D98FF91EF91BF91AF919F918F912C
:103E20007F916F915F914F913F912F910F900FBEB6
:103E30000F901F901895CF93DF93EB0110927000B5
:103E400061E083E00E94543360E083E00E948D33A0
:103E50009E01442737FD4095542F60E47FE180E0C8
:103E600090E00E94223481E08093B00089E080934A
:103E7000B1002093B3008BEA289F212D11242695B1
:103E80002093B400DF91CF9108958F929F92AF92CB
:103E9000BF92CF92DF92EF92FF926A017B01453091
:103EA00051056105710500F10E949B324B015C01D7
:103EB00084E0C81AD108E108F108C80CD91CEA1C32
:103EC000FB1CC814D904EA04FB0438F40E949B329A
:103ED00086169706A806B906C8F30E949B326C1591
:103EE0007D058E059F05C8F3FF90EF90DF90CF9082
:103EF000BF90AF909F908F9008952091B000206266
:103F00002093B0006115710529F0AB0160E070E00D
:103F10000C94451F08952091B0002F7D2093B00090
:103F20006115710529F0AB0160E070E00C94451F4C
:103F30000895CF92DF92EF92FF920F931F93CF934A
:103F4000DF937C018B016A01B9010E941B1FE8010C
:103F500000E010E00C151D0571F068817981C70142
:103F600000FF03C00E948B1F02C00E947D1F0F5FD5
:103F70001F4F2296EFCF8091B0008F7D8093B000CD
:103F8000DF91CF911F910F91FF90EF90DF90CF9035
:103F90000895CF92DF92EF92FF920F9330E0C12C01
:103FA000F2E1DF2EFAE7EF2EF12C4C155D056E05E0
:103FB0007F0540F4F694E794D794C7943F5F36307A
:103FC000A1F737E041E04327211102C050E701C0CB
:103FD00050E5242F30E03595279523700C70202B69
:103FE000252BFC012083417041830F91FF90EF90BE
:103FF000DF90CF9008952091DC01222399F03FB704
:10400000F8942091DC01213059F42DB32093DA018A
:104010004DB32091DB01209524232DBB3FBF02C06F
:104020003093DA018CBD9DBD08958091DC01882319
:1040300061F09FB7F8942091DC018091DA01213082
:1040400019F48DBB9FBF08958FBF089590E0982FFE
:10405000882744E050E0845F9B4F0C948C24282FE9
:1040600030E02C5F3F4F922F8827860F971F0C94CC
:10407000BB2462E070E00C942F20FB01282F30E07D
:104080002C5F3F4F922F8827642F8E0F9F1F0C9419
:104090000224CF93DF93C82FD62F472F64E070E020
:1040A0000E943D204D2F65E070E08C2FDF91CF9175
:1040B0000C943D20462F62E070E00C943D20CF939D
:1040C000DF93C82FD62F472F60E170E00E943D207C
:1040D0004D2F61E170E08C2FDF91CF910C943D204A
:1040E0000F931F93CF93DF9300D01F92CDB7DEB70E
:1040F000182F00E021E040E059E06DE370E0CE01D0
:1041000001960E94C91F89819A810E94FB1F63E06A
:1041100070E0812F0E942F208B830E9415208B81BD
:104120000F900F900F90DF91CF911F910F910895F5
:104130000F931F93CF93DF9300D0CDB7DEB7182F27
:1041400000E021E040E059E06DE370E0CE0101962F
:104150000E94C91F89819A810E94FB1F40E150E0A3
:10416000612F82EB92E00E9485266FEF812F0E94E3
:104170005A200E9415200F900F90DF91CF911F9130
:104180000F910895CF92DF92EF92FF920F931F93BA
:10419000CF93DF9300D0CDB7DEB7182FD62E7A019C
:1041A000C22E8FEF860F8530A8F5812F0E949820B0
:1041B00000E021E040E059E06DE370E0CE010196BF
:1041C0000E94C91F89819A810E94FB1F4D2D4C2995
:1041D00060E070E0812F0E943D20E114F10411F0B5
:1041E000B7010AC06091B0027091B1026F5F7F4F5A
:1041F0007093B1026093B002812F0E94492041E088
:1042000050E0612F82EB92E00E9485260E941520EB
:1042100081E001C080E00F900F90DF91CF911F915E
:104220000F91FF90EF90DF90CF9008950F931F9321
:10423000CF93DF9300D0CDB7DEB7182F00E021E099
:1042400040E059E06DE370E0CE0101960E94C91F85
:1042500089819A810E94FB1F63E070E0812F0E9498
:104260002F20833121F00E94152080E00AC042E017
:1042700050E0612F82EB92E00E9485260E9415207B
:1042800081E00F900F90DF91CF911F910F910895D2
:10429000CF92DF92EF92FF920F931F93CF93DF9312
:1042A00000D0CDB7DEB7182F7B016A01FB018081FA
:1042B0008F3F51F481818F3F99F482818F3F81F448
:1042C00083818F3F69F430C081110AC0FB01818175
:1042D000811106C08281811103C08381882321F16D
:1042E000C114D10409F100E021E040E059E06DE3A0
:1042F00070E0CE0101960E94C91F89819A810E94B7
:10430000FB1FB701812F0E942620B601812F0E943A
:104310005F2044E050E0612F82EB92E00E9485260E
:104320000E94152081E001C080E00F900F90DF9186
:10433000CF911F910F91FF90EF90DF90CF90089554
:104340000F931F93CF93DF9300D0CDB7DEB7182F15
:1043500000E021E040E059E06DE370E0CE0101961D
:104360000E94C91F89819A810E94FB1F48E050E08A
:10437000612F82EB92E00E9485260E9415200F900B
:104380000F90DF91CF911F910F910895BF92CF921F
:10439000DF92EF92FF920F931F93CF93DF9300D0A2
:1043A0001F92CDB7DEB7B82E6B017A01413088E09D
:1043B000580718F0E12C98E0F92E00E021E040E0E9
:1043C00059E06DE370E0CE0101960E94C91F89811A
:1043D0009A810E94FB1F6B2D82EB92E00E94F324D6
:1043E0008C0163E070E08B2D0E942F208B830E9454
:1043F00015208B81873111F08C3131F40E942E32DF
:104400000E151F05D0F202C0E12CF12C00E021E0D6
:1044100040E059E06DE370E0CE0101960E94C91FB3
:1044200089819A810E94FB1F9701A6016B2D82EB67
:1044300092E00E94B22540E250E06B2D82EB92E0C8
:104440000E9485268B2D0E94392084FD22C063E0C6
:1044500070E08B2D0E942F20811108C00E94152032
:104460008B2D0E94982080E090E01AC00E941520B9
:104470000E942E3200E021E040E059E06DE370E060
:10448000CE0101960E94C91F89819A810E94FB1F5B
:10449000D9CF60E18B2D0E945A200E941520C701C0
:1044A0000F900F900F90DF91CF911F910F91FF9080
:1044B000EF90DF90CF90BF900895AF92BF92CF92D0
:1044C000DF92EF92FF920F931F93CF93DF9300D071
:1044D000CDB7DEB7182F5B016A0100E021E040E0B4
:1044E00059E06DE370E0CE0101960E94C91F8981F9
:1044F0009A810E94FB1F612F82EB92E00E94272588
:104500007C010097A1F463E070E0812F0E942F20CE
:10451000843119F1882309F121E030E08C3111F464
:1045200020E030E0EE24FF24E21AF30A16C0C81699
:10453000D9060CF476011E141F047CF400E09701E8
:10454000A501612F82EB92E00E94352640E450E005
:10455000612F82EB92E00E9485260E941520C70100
:104560000F900F90DF91CF911F910F91FF90EF90DF
:10457000DF90CF90BF90AF9008950F931F93CF938C
:10458000DF9300D000D0CDB7DEB7182F00E021E0D8
:1045900040E059E06DE370E0CE0101960E94C91F32
:1045A00089819A810E94FB1F612F82EB92E00E9419
:1045B00027258B839C830E9415208B819C810F90E3
:1045C0000F900F900F90DF91CF911F910F91089551
:1045D000EF92FF920F931F93CF93DF9300D0CDB74D
:1045E000DEB7182F7B0100E021E040E059E06DE3E9
:1045F00070E0CE0101960E94C91F89819A810E94B4
:10460000FB1F01E021E030E0A701612F82EB92E087
:104610000E9435260E94152081E090E00F900F90B7
:10462000DF91CF911F910F91FF90EF900895089522
:104630009F92AF92BF92CF92DF92EF92FF920F9331
:104640001F93CF93DF9300D0CDB7DEB7982E6B01C9
:104650005A01790100E021E040E059E06DE370E0AB
:10466000CE0101960E94C91F89819A810E94FB1F79
:10467000692D82EB92E00E94F3248E159F0530F4A1
:10468000692D82EB92E00E94F3247C018701950161
:10469000A601692D82EB92E00E9443250E9415201D
:1046A000C7010F900F90DF91CF911F910F91FF9055
:1046B000EF90DF90CF90BF90AF909F900895CF92F2
:1046C000DF92EF92FF920F931F93CF93DF9300D06F
:1046D000CDB7DEB7182F7B016A01FB018081811104
:1046E00009C08181811106C08281811103C083814B
:1046F0008823F1F0C114D104D9F000E021E040E0BA
:1047000059E06DE370E0CE0101960E94C91F8981D6
:104710009A810E94FB1FB701812F0E942620B601BB
:10472000812F0E945F200E94152081E090E002C04E
:1047300080E090E00F900F90DF91CF911F910F914B
:10474000FF90EF90DF90CF9008950F931F93CF933A
:10475000DF9300D0CDB7DEB7182F00E021E040E0B6
:1047600059E06DE370E0CE0101960E94C91F898176
:104770009A810E94FB1F40E250E0612F82EB92E0A1
:104780000E948526812F0E94392084FD21C0812F1F
:104790000E94392083FF09C068E1812F0E945A20BE
:1047A0000E94152080E090E01BC00E9415200E940E
:1047B0002E3200E021E040E059E06DE370E0CE01F0
:1047C00001960E94C91F89819A810E94FB1FDACF3E
:1047D00060E1812F0E945A200E94152081E090E024
:1047E0000F900F90DF91CF911F910F9108958EBD83
:1047F00000000DB407FEFDCF8EB508952A980895E8
:104800002A9A08951F93CF93DF9300D0CDB7DEB7D8
:10481000182F6A8399830E94FE2380EF0E94F7235A
:104820009981892F0E94F723812F0E94F7236A81A3
:10483000862F0E94F7230E94002481E00F900F90A2
:10484000DF91CF911F910895CF93DF93EC016CE23C
:1048500071E080E090E00E94BE320E943C1E229AED
:104860008091DC01882399F09FB7F8948091DC0156
:10487000813059F48DB38093DA012DB38091DB013F
:10488000809582238DBB9FBF02C09093DA0180E5A3
:104890008CBD1DBC60E880E090E00E94022465E5CC
:1048A0008BE190E00E94022465E58AE190E00E949D
:1048B00002248091DC01882361F09FB7F894209155
:1048C000DC018091DA01213019F48DBB9FBF01C05A
:1048D0008FBF80E090E49983888380E090E6998799
:1048E000888780E098E49B838A8380E098E69B87B2
:1048F0008A8780E090E59D838C8380E090E79D87A8
:104900008C8780E098E59F838E8380E098E79F877F
:104910008E87DF91CF910895CF92DF92EF92FF9231
:104920000F931F93CF93DF93EC017A018B016C01FE
:10493000C40ED51ECC15DD05A1F00E94FE2380EF2C
:104940000E94F7238D2F0E94F7238C2F0E94F723BC
:104950002196F80181918F010E94F7230E94002483
:10496000E9CFC701DF91CF911F910F91FF90EF9099
:10497000DF90CF9008951F93CF93DF931F92CDB711
:10498000DEB7182F99830E94FE238FE00E94F72341
:104990009981892F0E94F723812F0E94F72380E0BD
:1049A0000E94F72389830E94002489810F90DF9160
:1049B000CF911F9108951F93CF93DF93182F60E23B
:1049C00070E00E942F20C82FD0E061E270E0812FBC
:1049D0000E942F20DC2FCC279E01282BC901DF91BC
:1049E000CF911F910895FF920F931F93CF93DF9361
:1049F000F62EC0E0D0E08F2D0E94DB248C010097C2
:104A000021F08F2D0E94DB24EC01C017D10799F70C
:104A1000CE01DF91CF911F910F91FF9008951F93C9
:104A2000CF93DF93182F66E270E00E942F20C82FEB
:104A3000D0E067E270E0812F0E942F20DC2FCC278E
:104A40009E01282BC901DF91CF911F910895FF92FC
:104A50000F931F93CF93DF93F62EC0E0D0E08F2DFE
:104A60000E940F258C01009721F08F2D0E940F25A9
:104A7000EC01C017D10799F7CE01DF91CF911F91BB
:104A80000F91FF9008956F927F929F92AF92BF9285
:104A9000CF92DF92EF92FF920F931F93CF93DF930A
:104AA0001F92CDB7DEB7D82E962E3A01590164E297
:104AB00070E0892D99830E942F20E82EF12C65E269
:104AC00070E0892D0E942F20FE2CEE24E82AE60CAF
:104AD000F71C970137706D2C9981792E690C711C28
:104AE000690C711CD301ED91FC91E20FF31FC90118
:104AF000800F911F81309840A0F0C12C48E0D42E47
:104B0000C21AD30AA601B501CF010E948C24A801C4
:104B10004C195D09B5016C0D7D1DF30180819181FA
:104B200003C0A801B501CF010E948C24E00EF11E44
:104B30004F2D64E270E0892D0E943D204E2D65E2EC
:104B400070E0892D0F90DF91CF911F910F91FF9011
:104B5000EF90DF90CF90BF90AF909F907F906F903D
:104B60000C943D200F931F9389019A0140E050E07F
:104B70000E9443251F910F910895CF92DF92EF92EB
:104B8000FF920F931F93CF93DF93EC017A018B0178
:104B90006C01C40ED51ECC15DD05A9F00E94FE23C4
:104BA0008FE00E94F7238D2F0E94F7238C2F0E9405
:104BB000F723219680E00E94F723F80181938F016B
:104BC0000E940024E8CFC701DF91CF911F910F9180
:104BD000FF90EF90DF90CF900895AF92BF92CF9269
:104BE000DF92EF92FF920F931F93CF93DF9300D04A
:104BF000CDB7DEB75A8349835901E981FA81F7704D
:104C00007C01E60EF11CE60EF11CD70118968D9181
:104C10009C9119978E0F9F1F98012E0F3F1F2130D7
:104C2000384098F0C12C68E0D62ECE1ADF0AA601D3
:104C3000B5010E94BD25A8014C195D09B5016C0D97
:104C40007D1DF7018085918502C0A801B5010F90F7
:104C50000F90DF91CF911F910F91FF90EF90DF9018
:104C6000CF90BF90AF900C94BD258F929F92AF9242
:104C7000BF92CF92DF92EF92FF920F931F93CF9349
:104C8000DF936C01962E5A017901802E68E270E064
:104C9000892D0E942F20C82FD0E069E270E0892D75
:104CA0000E942F20DC2FCC27C82B87019501AE0155
:104CB000692DC6010E94ED2581101AC0CE0DDF1DA1
:104CC0004D2F68E270E0892D0E943D204C2F69E253
:104CD00070E0892DDF91CF911F910F91FF90EF90A0
:104CE000DF90CF90BF90AF909F908F900C943D201D
:104CF000DF91CF911F910F91FF90EF90DF90CF90B8
:104D0000BF90AF909F908F900895CF93C62F61E092
:104D100070E08C2F0E943D2061E070E08C2F0E949B
:104D20002F208111F9CFCF9108950F9300E020E05B
:104D300040E060E082EC92E00E94B9300F9108956B
:104D4000FB014281538164817581FC01428353835D
:104D500064837583178216820895CF93FB01819136
:104D60008111FDCFFB0180E090E020E030E0CAE05F
:104D70006191662309F12430310564F56E3271F4D6
:104D80008F3F910509F034F5DA01A20FB31F129697
:104D90008C932F5F3F4F80E090E0EACFDC01CA9F09
:104DA000C001CB9F900D1124772767FD709560534C
:104DB0007109860F971FDCCF8F3F910509F054F4DE
:104DC000243031053CF4FA01E20FF31F828381E0C5
:104DD00090E002C080E090E0CF9108950F9300E052
:104DE00020E040E060E088EC92E00E94B9300F9152
:104DF0000895AF92BF92CF92DF92EF92FF920F93FE
:104E00001F93CF93DF9300D01F92CDB7DEB76C0115
:104E10007B010E948F32F601778366838601085FEB
:104E20001F4FB6016A5F7F4F42E050E0C8010E9409
:104E3000072F81E090E09A83898342E050E0BE0131
:104E40006F5F7F4FC8010E94072F80E091E09A8337
:104E5000898342E050E0BE016F5F7F4FC8010E942E
:104E6000072F1A82198242E050E0BE016F5F7F4F28
:104E7000C8010E94072F42E050E0BE016F5F7F4FE4
:104E8000C8010E94072F42E050E0BE016F5F7F4FD4
:104E9000C8010E94072F6701F6018081882311F164
:104EA000F7016F018191811115C05601AE18BF083D
:104EB0001A141B0494F4AB8241E050E0BE016D5F14
:104EC0007F4FC8010E94072FA501B701C8010E94AA
:104ED000072F03C08E3229F7E8CF7601FFEFEF1AD4
:104EE000FF0ADACF1B8241E050E0BE016D5F7F4FC9
:104EF000C8010E94072FE12CFF24F394FA82E98273
:104F000042E050E0BE016F5F7F4FC8010E94072F53
:104F1000FA82E98242E050E0BE016F5F7F4FC80134
:104F20000E94072F81E090E00F900F900F90DF918B
:104F3000CF911F910F91FF90EF90DF90CF90BF9096
:104F4000AF9008954F925F926F927F928F929F924F
:104F5000AF92BF92CF92DF92EF92FF920F931F9387
:104F6000CF93DF93CDB7DEB763970FB6F894DEBF6C
:104F70000FBECDBF7C015B016A010E948F322B0105
:104F80003C018701085F1F4F4501A12CB12CC801CE
:104F90000E94A72F1816190694F00E948F326419E8
:104FA00075098609970986169706A806B906D0F0EE
:104FB00062E370E080E090E00E94BE32E8CFF7014B
:104FC0004281538164817581818D928DA38DB48DD1
:104FD000481759076A077B0741F4858D968DC59759
:104FE00021F406C08FEF9FEFF9C08EEF9FEFF6C060
:104FF000C8010E94BA2E0C970CF4EEC04CE050E0B1
:10500000BE016F5F7F4FC8010E94442F8B819C813E
:105010009827892798279A8B898BF7014681578192
:1050200029813A814217530711F497FD06C0C80140
:105030000E94D42E8CEF9FEFD1C08F709270892B7D
:1050400031F0C8010E94D42E8BEF9FEFC7C0AF8014
:10505000B884BA24AB24BA24A114B10419F0E12C09
:10506000F12C23C0C8010E94D42E8AEF9FEFB6C056
:1050700041E050E0BE01635F7F4FC8010E94442FB2
:105080008D8581111BC08D858111F2CFC8010E94D1
:105090001B2FC8010E941B2FC8010E941B2FC80193
:1050A0000E941B2FFFEFEF1AFF0A8D819E81982728
:1050B00089279827E816F906D8F20AC08D859FEF50
:1050C000980F9D878823F9F2C8010E941B2FF6CF05
:1050D000E12CF12C41E050E0BE016D5E7F4FC80134
:1050E0000E94442F8B89982F907C61F4882371F063
:1050F0008B899FEF980F9B8B882341F0C8010E94FA
:105100001B2FF6CFC8010E941B2F1B8A8B89811190
:10511000E1CF42E050E0BE01615F7F4FC8010E94D5
:10512000442F42E050E0BE01635F7F4FC8010E9400
:10513000442FC8010E941B2FC8010E941B2FC801C9
:105140000E941B2FC8010E941B2F42E050E0BE01AD
:105150006F5E7F4FC8010E94442F8F85988981150B
:10516000914029F48D859E858115914019F0812CFF
:10517000912C16C089899A898115944031F0C80113
:105180000E94D42E87EF9FEF29C0B6016E5F7F4F3C
:1051900044E050E0C8010E94442F81E090E01EC02E
:1051A00089899A899827892798278816990638F433
:1051B000C8010E941B2F2FEF821A920AF1CF8FEFA6
:1051C000E81AF80AEA14FB0409F084CFC8010E9427
:1051D000D42E86EF9FEF02C08DEF9FEF63960FB640
:1051E000F894DEBF0FBECDBFDF91CF911F910F911D
:1051F000FF90EF90DF90CF90BF90AF909F908F90F7
:105200007F906F905F904F9008958F929F92AF9292
:10521000BF92CF92DF92EF92FF920F931F93CF93A3
:10522000DF9300D000D000D0CDB7DEB78C015B019A
:105230006A010E94AD264C01009709F05DC0F8019B
:1052400042815381648175818091CA029091CB0221
:10525000A091CC02B091CD02481759076A077B078D
:1052600009F44EC00E948F327801F8E0EF0EF11C75
:105270006F7077277C5FC7010E947A2F813009F019
:1052800043C08BEC91E09A838983F80182819381FA
:10529000A481B5818B839C83AD83BE8345E350E0BD
:1052A000BE016F5F7F4FC7010E94FB2E892B19F44F
:1052B000812C912C1DC0B501C8010E94F926892BB3
:1052C000B9F3C7010E94032F892B91F333E0A32E7A
:1052D000B12CA60168E873E1C8010E94A2274C0125
:1052E000F1E0AF1AB10821F08F3F2FEF920789F359
:1052F000C7010E94E62E08C088248394912C04C024
:105300009EEF892E99249A94C40126960FB6F8949C
:10531000DEBF0FBECDBFDF91CF911F910F91FF90E8
:10532000EF90DF90CF90BF90AF909F908F900895B7
:1053300044E050E0BC0181E090E00C948C2444E017
:1053400050E0BC0185E090E00C948C2444E050E0F7
:10535000BC018FE090E00C948C248F929F92AF92CE
:10536000BF92CF92DF92EF92FF920F931F93CF9352
:10537000DF9300D0CDB7DEB74C016A01590182EB53
:1053800092E069837A830E94242480E590E00E9461
:10539000FB1F46E050E069817A8189E090E00E943D
:1053A0008C24C60102960E94A629C80102960E947A
:1053B0009829C70102960E949F290E941520F50195
:1053C0004281538164817581F401428353836483F4
:1053D00075830F900F90DF91CF911F910F91FF90E8
:1053E000EF90DF90CF90BF90AF909F908F900895F7
:1053F0006F927F928F929F92AF92BF92CF92DF92E5
:10540000EF92FF920F931F93CF93DF93CDB7DEB749
:105410006E970FB6F894DEBF0FBECDBF6C015B0177
:105420007A014901380100E02FEF4FEF6FEFCE0115
:1054300049960E94B9302BEC31E03A8329838B8D59
:105440009C8DAD8DBE8D8B839C83AD83BE83388751
:105450002F83F30182819381A481B58189879A8703
:10546000AB87BC873E872D87F40182819381A4811D
:10547000B5818F87988BA98BBA8B3C8B2B8BF701CF
:1054800042815381648175814D8B5E8B6F8B788FE8
:10549000CE0101967C018E01095F1F4F9E01235FA3
:1054A0003F4FAE014D5E5F4FB501C6010E94AD2971
:1054B0006E960FB6F894DEBF0FBECDBFDF91CF91D1
:1054C0001F910F91FF90EF90DF90CF90BF90AF9022
:1054D0009F908F907F906F900895CF92DF92EF9280
:1054E000FF920F931F93CF93DF93CDB7DEB76897EB
:1054F0000FB6F894DEBF0FBECDBF6B017901DA01A4
:1055000012964D915D916D917C9115974D8B5E8BAF
:105510006F8B788FABECB1E0BA83A98321E0288F41
:105520000D891E892F89388D0B831C832D833E8323
:10553000B887AF83F7010281138124813581098700
:105540001A872B873C87BE87AD874F87588B698B1F
:105550007A8B8E010F5F1F4F9E01295F3F4FAE0177
:10556000435F5F4FB6010E94F82968960FB6F89422
:10557000DEBF0FBECDBFDF91CF911F910F91FF9086
:10558000EF90DF90CF9008950F931F93CF93DF9309
:10559000CDB7DEB762970FB6F894DEBF0FBECDBFB2
:1055A000DB01FA0142815381648175814F87588BF9
:1055B000698B7A8BEBECF1E0FA83E98321E02A8BAB
:1055C0000F85188929893A890B831C832D833E8393
:1055D000F887EF8349875A876B877C879E012F5F07
:1055E0003F4FAE01495F5F4FBD010E946D2A629639
:1055F0000FB6F894DEBF0FBECDBFDF91CF911F91E4
:105600000F9108952BEC31E0FC0131832083FB01E5
:105610004281538164817581FC0142835383648399
:10562000758308950F9300E020E040E060E08EED88
:1056300092E00E94B9308EEC92E00F910C94AF3062
:1056400081E086270895862F0895DC01ED91FC9175
:10565000048CF58DE02D099591E089270895CF936D
:10566000DF931F92CDB7DEB76983DC01ED91FC912A
:105670000280F381E02D41E050E0BE016F5F7F4F7B
:1056800009950F90DF91CF91089521E0FC01848569
:10569000843009F420E0822F0895FC019485FB01F9
:1056A0008485981303C081E0943009F480E0089564
:1056B0000F931F93CF93DF93EC018A018C85843085
:1056C00021F00E94C621892B39F481E090E09B8370
:1056D0008A8380E090E001C0C801DF91CF911F91E3
:1056E0000F910895FC018485843011F00C94BD2243
:1056F00080E090E00895CF93DF931F92CDB7DEB79F
:1057000041E050E0BE016F5F7F4FFC0184850E9445
:105710005D22181619061CF4898190E002C08FEFF3
:105720009FEF0F90DF91CF910895FC0184850C9439
:105730005D220F931F93CF93DF931F92CDB7DEB7F8
:105740008C01DC01ED91FC910480F581E02D09953F
:10575000892B51F0BE016F5F7F4FF80184850E9455
:10576000E822898190E002C08FEF9FEF0F90DF91D8
:10577000CF911F910F910895FC0184850C941723FC
:10578000CF92DF92EF92FF920F931F93CF93DF930D
:10579000CDB7DEB7AF970FB6F894DEBF0FBECDBF63
:1057A0007C018B016A01CE0101960E94AF30CE01CF
:1057B00009960E94F72FCE018A960E94AF306EECB8
:1057C00072E0CE0184960E94022BBE016C5D7F4F79
:1057D000CE0101960E94A026AE01465D5F4FB80142
:1057E000CE0101960E94052981309105C1F4D701AF
:1057F000ED91FC910484F585E02D8BEC91E09DA367
:105800008CA30CA51DA52EA53FA50EA31FA328A7FD
:1058100039A7A601BE016C5D7F4FC7010995AF9600
:105820000FB6F894DEBF0FBECDBFDF91CF911F91B1
:105830000F91FF90EF90DF90CF900895FC01262FFD
:105840001382128248EE53E060E070E04483558397
:105850006683778389E791E0918380832487089525
:10586000FC018485843011F00C94702080E0089550
:10587000DF92EF92FF920F931F93CF93DF93EC0190
:105880007B018A018C85843009F045C0D12C8D2D97
:105890000E947020811102C0DC8607C08B7F883196
:1058A000D9F3D39484E0D812F2CF8C85843099F167
:1058B00020910A0130910B012F5F3F4F11F420E03E
:1058C00030EC30930B0120930A0140910A01509172
:1058D0000B0120E061E00E94C220B7016E5F7F4FA4
:1058E000A8018C850E944821811103C084E08C8727
:1058F00012C0CE010E94302C873151F061E070E07F
:1059000080E090E00E94BE32CE010E94302CECCFAD
:1059100081E090E002C080E090E0DF91CF911F91A4
:105920000F91FF90EF90DF900895CF92DF92EF926A
:10593000FF92CF93DF93EC018C85843081F10E943C
:10594000A0210E948F326B017C01CE010E94302C7D
:10595000882359F00E948F326C197D098E099F09A6
:10596000683E73408105910598F0CE010E94302C6D
:10597000882319F08C850E949820EC85F0E0EE0FCA
:10598000FF1FEA52FD4F1182108284E08C8707C00E
:1059900061E070E080E090E00E94BE32D6CFDF91FF
:1059A000CF91FF90EF90DF90CF900895CF93DF934A
:1059B000EC018C858430D1F0CE010E94302C8431F2
:1059C000A9F0882399F0883189F08C3169F4E88155
:1059D000F9810480F581E02DCE01099521E0892B24
:1059E00009F420E0822F03C081E001C080E0DF9154
:1059F000CF9108950F9300E020E040E060E084EE56
:105A000092E00E94B9300F910895CF93DF931F92D7
:105A1000CDB7DEB76983DC01ED91FC910280F381A3
:105A2000E02D41E050E0BE016F5F7F4F09950F9080
:105A3000DF91CF910895EF92FF920F931F93CF9331
:105A4000DF93CDB7DEB72D970FB6F894DEBF0FBE4C
:105A5000CDBF7C0100E010E0602FCE0101960E94D6
:105A60001E2CCE0101960E94302C811116C0F70128
:105A70004481558120E061E0802F0E94C220802F68
:105A80000E941621F70184819581F801EE0FFF1F16
:105A9000EA52FD4F9183808305C00F5F1F4F043092
:105AA0001105D1F62D960FB6F894DEBF0FBECDBF0F
:105AB000DF91CF911F910F91FF90EF900895FC011E
:105AC000138212828DE991E09183808375836483D0
:105AD0000895BF92CF92DF92EF92FF920F931F93A0
